{
  "_format": "hh-sol-artifact-1",
  "contractName": "Tournment",
  "sourceName": "contracts/Tournments.sol",
  "abi": [
    {
      "inputs": [],
      "stateMutability": "nonpayable",
      "type": "constructor"
    },
    {
      "inputs": [
        {
          "internalType": "string",
          "name": "_match",
          "type": "string"
        }
      ],
      "name": "addMatch",
      "outputs": [],
      "stateMutability": "nonpayable",
      "type": "function"
    },
    {
      "inputs": [
        {
          "internalType": "uint256",
          "name": "_index",
          "type": "uint256"
        }
      ],
      "name": "getMatchIndex",
      "outputs": [
        {
          "internalType": "string",
          "name": "",
          "type": "string"
        }
      ],
      "stateMutability": "view",
      "type": "function"
    },
    {
      "inputs": [
        {
          "internalType": "uint256",
          "name": "",
          "type": "uint256"
        }
      ],
      "name": "matchData",
      "outputs": [
        {
          "internalType": "string",
          "name": "",
          "type": "string"
        }
      ],
      "stateMutability": "view",
      "type": "function"
    }
  ],
  "bytecode": "0x608060405234801561001057600080fd5b50336000806101000a81548173ffffffffffffffffffffffffffffffffffffffff021916908373ffffffffffffffffffffffffffffffffffffffff160217905550610917806100606000396000f3fe608060405234801561001057600080fd5b50600436106100415760003560e01c80630b87cfae14610046578063dcdb27cd14610076578063f956c13914610092575b600080fd5b610060600480360381019061005b9190610379565b6100c2565b60405161006d9190610436565b60405180910390f35b610090600480360381019061008b91906104bd565b61016e565b005b6100ac60048036038101906100a79190610379565b61023e565b6040516100b99190610436565b60405180910390f35b600181815481106100d257600080fd5b9060005260206000200160009150905080546100ed90610539565b80601f016020809104026020016040519081016040528092919081815260200182805461011990610539565b80156101665780601f1061013b57610100808354040283529160200191610166565b820191906000526020600020905b81548152906001019060200180831161014957829003601f168201915b505050505081565b60008054906101000a900473ffffffffffffffffffffffffffffffffffffffff1673ffffffffffffffffffffffffffffffffffffffff163373ffffffffffffffffffffffffffffffffffffffff16146101fc576040517f08c379a00000000000000000000000000000000000000000000000000000000081526004016101f3906105dc565b60405180910390fd5b60018282909180600181540180825580915050600190039060005260206000200160009091929091929091929091925091826102399291906107e2565b505050565b60606001805490508210156102fb5760018281548110610261576102606108b2565b5b90600052602060002001805461027690610539565b80601f01602080910402602001604051908101604052809291908181526020018280546102a290610539565b80156102ef5780601f106102c4576101008083540402835291602001916102ef565b820191906000526020600020905b8154815290600101906020018083116102d257829003601f168201915b50505050509050610334565b6040518060400160405280600e81526020017f4e6f206d6174636820666f756e6400000000000000000000000000000000000081525090505b919050565b600080fd5b600080fd5b6000819050919050565b61035681610343565b811461036157600080fd5b50565b6000813590506103738161034d565b92915050565b60006020828403121561038f5761038e610339565b5b600061039d84828501610364565b91505092915050565b600081519050919050565b600082825260208201905092915050565b60005b838110156103e05780820151818401526020810190506103c5565b60008484015250505050565b6000601f19601f8301169050919050565b6000610408826103a6565b61041281856103b1565b93506104228185602086016103c2565b61042b816103ec565b840191505092915050565b6000602082019050818103600083015261045081846103fd565b905092915050565b600080fd5b600080fd5b600080fd5b60008083601f84011261047d5761047c610458565b5b8235905067ffffffffffffffff81111561049a5761049961045d565b5b6020830191508360018202830111156104b6576104b5610462565b5b9250929050565b600080602083850312156104d4576104d3610339565b5b600083013567ffffffffffffffff8111156104f2576104f161033e565b5b6104fe85828601610467565b92509250509250929050565b7f4e487b7100000000000000000000000000000000000000000000000000000000600052602260045260246000fd5b6000600282049050600182168061055157607f821691505b6020821081036105645761056361050a565b5b50919050565b7f4f6e6c79206f776e65722063616e2063616c6c20746869732066756e6374696f60008201527f6e00000000000000000000000000000000000000000000000000000000000000602082015250565b60006105c66021836103b1565b91506105d18261056a565b604082019050919050565b600060208201905081810360008301526105f5816105b9565b9050919050565b600082905092915050565b7f4e487b7100000000000000000000000000000000000000000000000000000000600052604160045260246000fd5b60008190508160005260206000209050919050565b60006020601f8301049050919050565b600082821b905092915050565b6000600883026106987fffffffffffffffffffffffffffffffffffffffffffffffffffffffffffffffff8261065b565b6106a2868361065b565b95508019841693508086168417925050509392505050565b6000819050919050565b60006106df6106da6106d584610343565b6106ba565b610343565b9050919050565b6000819050919050565b6106f9836106c4565b61070d610705826106e6565b848454610668565b825550505050565b600090565b610722610715565b61072d8184846106f0565b505050565b5b818110156107515761074660008261071a565b600181019050610733565b5050565b601f8211156107965761076781610636565b6107708461064b565b8101602085101561077f578190505b61079361078b8561064b565b830182610732565b50505b505050565b600082821c905092915050565b60006107b96000198460080261079b565b1980831691505092915050565b60006107d283836107a8565b9150826002028217905092915050565b6107ec83836105fc565b67ffffffffffffffff81111561080557610804610607565b5b61080f8254610539565b61081a828285610755565b6000601f8311600181146108495760008415610837578287013590505b61084185826107c6565b8655506108a9565b601f19841661085786610636565b60005b8281101561087f5784890135825560018201915060208501945060208101905061085a565b8683101561089c5784890135610898601f8916826107a8565b8355505b6001600288020188555050505b50505050505050565b7f4e487b7100000000000000000000000000000000000000000000000000000000600052603260045260246000fdfea2646970667358221220b823c553f706463bb0c9a3830e482b25d2292eabe0f8a0b11f65372871ca258264736f6c63430008180033",
  "linkReferences": {},
  "deployedLinkReferences": {}
}