{
  "_format": "hh-sol-artifact-1",
  "contractName": "Tournment",
  "sourceName": "contracts/Tournments.sol",
  "abi": [
    {
      "inputs": [],
      "stateMutability": "nonpayable",
      "type": "constructor"
    },
    {
      "inputs": [
        {
          "internalType": "string",
          "name": "_matchData",
          "type": "string"
        }
      ],
      "name": "addMatchData",
      "outputs": [],
      "stateMutability": "nonpayable",
      "type": "function"
    },
    {
      "inputs": [
        {
          "internalType": "address",
          "name": "_address",
          "type": "address"
        }
      ],
      "name": "getTournmentAddress",
      "outputs": [
        {
          "internalType": "uint256",
          "name": "",
          "type": "uint256"
        }
      ],
      "stateMutability": "view",
      "type": "function"
    },
    {
      "inputs": [],
      "name": "getTournments",
      "outputs": [
        {
          "internalType": "string[]",
          "name": "",
          "type": "string[]"
        },
        {
          "internalType": "bytes32",
          "name": "",
          "type": "bytes32"
        }
      ],
      "stateMutability": "view",
      "type": "function"
    },
    {
      "inputs": [
        {
          "internalType": "uint256",
          "name": "",
          "type": "uint256"
        }
      ],
      "name": "matchData",
      "outputs": [
        {
          "internalType": "string",
          "name": "",
          "type": "string"
        }
      ],
      "stateMutability": "view",
      "type": "function"
    }
  ],
  "bytecode": "0x608060405234801561001057600080fd5b506000600160003373ffffffffffffffffffffffffffffffffffffffff1673ffffffffffffffffffffffffffffffffffffffff16815260200190815260200160002081905550610b2f806100656000396000f3fe608060405234801561001057600080fd5b506004361061004c5760003560e01c80630b87cfae1461005157806317378113146100815780634567fe8e1461009d5780635e3fcb2f146100bc575b600080fd5b61006b60048036038101906100669190610351565b6100ec565b604051610078919061040e565b60405180910390f35b61009b60048036038101906100969190610565565b610198565b005b6100a56101d0565b6040516100b39291906106d3565b60405180910390f35b6100d660048036038101906100d19190610761565b6102be565b6040516100e3919061079d565b60405180910390f35b600081815481106100fc57600080fd5b906000526020600020016000915090508054610117906107e7565b80601f0160208091040260200160405190810160405280929190818152602001828054610143906107e7565b80156101905780601f1061016557610100808354040283529160200191610190565b820191906000526020600020905b81548152906001019060200180831161017357829003601f168201915b505050505081565b6000819080600181540180825580915050600190039060005260206000200160009091909190915090816101cc91906109c4565b5050565b60606000806001436101e29190610ac5565b4081805480602002602001604051908101604052809291908181526020016000905b828210156102b0578382906000526020600020018054610223906107e7565b80601f016020809104026020016040519081016040528092919081815260200182805461024f906107e7565b801561029c5780601f106102715761010080835404028352916020019161029c565b820191906000526020600020905b81548152906001019060200180831161027f57829003601f168201915b505050505081526020019060010190610204565b505050509150915091509091565b6000600160008373ffffffffffffffffffffffffffffffffffffffff1673ffffffffffffffffffffffffffffffffffffffff168152602001908152602001600020549050919050565b6000604051905090565b600080fd5b600080fd5b6000819050919050565b61032e8161031b565b811461033957600080fd5b50565b60008135905061034b81610325565b92915050565b60006020828403121561036757610366610311565b5b60006103758482850161033c565b91505092915050565b600081519050919050565b600082825260208201905092915050565b60005b838110156103b857808201518184015260208101905061039d565b60008484015250505050565b6000601f19601f8301169050919050565b60006103e08261037e565b6103ea8185610389565b93506103fa81856020860161039a565b610403816103c4565b840191505092915050565b6000602082019050818103600083015261042881846103d5565b905092915050565b600080fd5b600080fd5b7f4e487b7100000000000000000000000000000000000000000000000000000000600052604160045260246000fd5b610472826103c4565b810181811067ffffffffffffffff821117156104915761049061043a565b5b80604052505050565b60006104a4610307565b90506104b08282610469565b919050565b600067ffffffffffffffff8211156104d0576104cf61043a565b5b6104d9826103c4565b9050602081019050919050565b82818337600083830152505050565b6000610508610503846104b5565b61049a565b90508281526020810184848401111561052457610523610435565b5b61052f8482856104e6565b509392505050565b600082601f83011261054c5761054b610430565b5b813561055c8482602086016104f5565b91505092915050565b60006020828403121561057b5761057a610311565b5b600082013567ffffffffffffffff81111561059957610598610316565b5b6105a584828501610537565b91505092915050565b600081519050919050565b600082825260208201905092915050565b6000819050602082019050919050565b600082825260208201905092915050565b60006105f68261037e565b61060081856105da565b935061061081856020860161039a565b610619816103c4565b840191505092915050565b600061063083836105eb565b905092915050565b6000602082019050919050565b6000610650826105ae565b61065a81856105b9565b93508360208202850161066c856105ca565b8060005b858110156106a857848403895281516106898582610624565b945061069483610638565b925060208a01995050600181019050610670565b50829750879550505050505092915050565b6000819050919050565b6106cd816106ba565b82525050565b600060408201905081810360008301526106ed8185610645565b90506106fc60208301846106c4565b9392505050565b600073ffffffffffffffffffffffffffffffffffffffff82169050919050565b600061072e82610703565b9050919050565b61073e81610723565b811461074957600080fd5b50565b60008135905061075b81610735565b92915050565b60006020828403121561077757610776610311565b5b60006107858482850161074c565b91505092915050565b6107978161031b565b82525050565b60006020820190506107b2600083018461078e565b92915050565b7f4e487b7100000000000000000000000000000000000000000000000000000000600052602260045260246000fd5b600060028204905060018216806107ff57607f821691505b602082108103610812576108116107b8565b5b50919050565b60008190508160005260206000209050919050565b60006020601f8301049050919050565b600082821b905092915050565b60006008830261087a7fffffffffffffffffffffffffffffffffffffffffffffffffffffffffffffffff8261083d565b610884868361083d565b95508019841693508086168417925050509392505050565b6000819050919050565b60006108c16108bc6108b78461031b565b61089c565b61031b565b9050919050565b6000819050919050565b6108db836108a6565b6108ef6108e7826108c8565b84845461084a565b825550505050565b600090565b6109046108f7565b61090f8184846108d2565b505050565b5b81811015610933576109286000826108fc565b600181019050610915565b5050565b601f8211156109785761094981610818565b6109528461082d565b81016020851015610961578190505b61097561096d8561082d565b830182610914565b50505b505050565b600082821c905092915050565b600061099b6000198460080261097d565b1980831691505092915050565b60006109b4838361098a565b9150826002028217905092915050565b6109cd8261037e565b67ffffffffffffffff8111156109e6576109e561043a565b5b6109f082546107e7565b6109fb828285610937565b600060209050601f831160018114610a2e5760008415610a1c578287015190505b610a2685826109a8565b865550610a8e565b601f198416610a3c86610818565b60005b82811015610a6457848901518255600182019150602085019450602081019050610a3f565b86831015610a815784890151610a7d601f89168261098a565b8355505b6001600288020188555050505b505050505050565b7f4e487b7100000000000000000000000000000000000000000000000000000000600052601160045260246000fd5b6000610ad08261031b565b9150610adb8361031b565b9250828203905081811115610af357610af2610a96565b5b9291505056fea26469706673582212206e910814a4d2b5443ee7528070fc20ab3239e28c70b4c99f9c3da0ad06fdc66d64736f6c63430008180033",
  "linkReferences": {},
  "deployedLinkReferences": {}
}